:020000040000FA
:100000000C94D0000C94F8000C94F8000C94F800B8
:100010000C94F8000C94F8000C94F8000C94F80080
:100020000C94F8000C94F8000C94F8000C94F80070
:100030000C94F8000C94F8000C94F8000C94F80060
:100040000C9484020C94F8000C9452020C942C0230
:100050000C94F8000C94F8000C94F8000C94F80040
:100060000C94F8000C94F80000407A10F35A00A0A9
:10007000724E18090010A5D4E80000E87648170071
:1000800000E40B54020000CA9A3B000000E1F505B1
:10009000000080969800000040420F000000A086FB
:1000A00001000000102700000000E803000000002D
:1000B0006400000000000A000000000001000000D1
:1000C00000002C76D888DC674F0823DFC1DFAE59EB
:1000D000E1B1B796E5E3E453C63AE651997696E87E
:1000E000E6C28426EB898C9B62ED407C6FFCEFBC02
:1000F0009C9F40F2BAA56FA5F490055A2AF75C932D
:100100006B6CF9676DC11BFCE0E40D47FEF520E662
:10011000B500D0ED902E0300943577050080841E45
:10012000080000204E0A000000C80C333333330FA0
:10013000986E12831141EF8D2114893BE65516CF3D
:10014000FEE6DB18D1844B381BF77C1D901DA4BB49
:10015000E424203284725E228100C9F124ECA1E5FE
:100160003D2700000000250028002B0000000000B3
:10017000240027002A0004040404040404040202E6
:100180000202020203030303030301020408102016
:100190004080010204081020010204081020EE0330
:1001A00011241FBECFEFD8E0DEBFCDBF11E0A0E02D
:1001B000B1E0E6E9F4E102C005900D92A034B10788
:1001C000D9F722E0A0E4B1E001C01D92AD31B20741
:1001D000E1F710E0C0EDD0E004C02197FE010E94DD
:1001E000A207CF3CD107C9F70E94CE020C94490A5E
:1001F0000C940000AF92BF92CF92DF92EF92FF92E9
:100200000F931F93CF93DF936C017B018B01040F3E
:10021000151FEB015E01AE18BF08C017D10759F0DA
:100220006991D601ED91FC910190F081E02DC6011C
:100230000995892B79F7C501DF91CF911F910F9116
:10024000FF90EF90DF90CF90BF90AF900895FC01AA
:10025000538D448D252F30E0842F90E0821B930B2B
:10026000541710F0CF96089501970895FC01918DD1
:10027000828D981761F0A28DAE0FBF2FB11D5D96D4
:100280008C91928D9F5F9F73928F90E008958FEF76
:100290009FEF0895FC01918D828D981731F0828D2A
:1002A000E80FF11D858D90E008958FEF9FEF089581
:1002B000FC01918D228D892F90E0805C9F4F821BE5
:1002C00091098F739927089589E491E00E9458015C
:1002D00021E0892B09F420E0822F089580E090E04E
:1002E000892B29F00E94640181110C94000008956B
:1002F000FC01A48DA80FB92FB11DA35ABF4F2C919B
:10030000848D90E001968F739927848FA689B78991
:100310002C93A089B1898C91837080648C93938D88
:10032000848D981306C00288F389E02D80818F7D2B
:1003300080830895EF92FF920F931F93CF93DF93E3
:10034000EC0181E0888F9B8D8C8D98131AC0E88911
:10035000F989808185FF15C09FB7F894EE89FF89E0
:100360006083E889F98980818370806480839FBF7E
:1003700081E090E0DF91CF911F910F91FF90EF907E
:100380000895F62E0B8D10E00F5F1F4F0F7311278E
:10039000E02E8C8D8E110CC00FB607FCFACFE889C9
:1003A000F989808185FFF5CFCE010E947801F1CFD8
:1003B000EB8DEC0FFD2FF11DE35AFF4FF0829FB73D
:1003C000F8940B8FEA89FB8980818062CFCFCF932D
:1003D000DF93EC01888D8823B9F0AA89BB89E8896D
:1003E000F9898C9185FD03C0808186FD0DC00FB613
:1003F00007FCF7CF8C9185FFF2CF808185FFEDCF91
:10040000CE010E947801E9CFDF91CF9108953FB7E7
:10041000F8948091450190914601A0914701B091D7
:10042000480126B5A89B05C02F3F19F00196A11DD4
:10043000B11D3FBFBA2FA92F982F8827BC01CD012E
:10044000620F711D811D911D42E0660F771F881F8D
:10045000991F4A95D1F708951F920F920FB60F92E8
:1004600011242F933F934F935F936F937F938F93B9
:100470009F93AF93BF93EF93FF9389E491E00E9422
:100480007801FF91EF91BF91AF919F918F917F91F3
:100490006F915F914F913F912F910F900FBE0F90F1
:1004A0001F9018951F920F920FB60F9211242F9341
:1004B0008F939F93EF93FF93E0915901F0915A012D
:1004C0008081E0915F01F091600182FD1BC090810D
:1004D000809162018F5F8F7320916301821741F0D9
:1004E000E0916201F0E0E75BFE4F958F809362013F
:1004F000FF91EF919F918F912F910F900FBE0F90D1
:100500001F9018958081F4CF1F920F920FB60F9213
:1005100011242F933F938F939F93AF93BF93809119
:10052000410190914201A0914301B0914401309169
:10053000400123E0230F2D3758F50196A11DB11D71
:10054000209340018093410190934201A093430185
:10055000B09344018091450190914601A0914701DB
:10056000B09148010196A11DB11D80934501909362
:100570004601A0934701B0934801BF91AF919F916D
:100580008F913F912F910F900FBE0F901F90189554
:1005900026E8230F0296A11DB11DD2CF789484B511
:1005A000826084BD84B5816084BD85B5826085BD6F
:1005B00085B5816085BD80916E00816080936E00FD
:1005C00010928100809181008260809381008091EF
:1005D00081008160809381008091800081608093A0
:1005E00080008091B10084608093B1008091B00060
:1005F00081608093B00080917A00846080937A005B
:1006000080917A00826080937A0080917A00816084
:1006100080937A0080917A00806880937A001092AB
:10062000C100E0915901F0915A0182E08083E0918C
:100630005501F09156011082E0915701F091580157
:100640008FEC808310926101E0915D01F0915E0179
:1006500086E08083E0915B01F0915C0180818061A4
:100660008083E0915B01F0915C01808188608083F0
:10067000E0915B01F0915C01808180688083E09172
:100680005B01F0915C0180818F7D8083E8E9F1E07E
:100690002491E4E8F1E084918823C1F090E0880F90
:1006A000991FFC01E459FE4FC591D491FC01EE590C
:1006B000FE4FA591B4919FB7F8948881E22FE09501
:1006C0008E2388838C91E823EC939FBF90E4392E8E
:1006D00022E1C22E21E0D22E36EEE32E31E0F32EBF
:1006E00030927C0080917A00806480937A008091BF
:1006F0007A0086FDFCCF80917800C0917900DC2FD4
:10070000C82FBE010D2E000C880B990B0E94A90664
:1007100020E030E040EA5BE30E94E40608E112E0FA
:1007200022E045E00E941B04C8019F930F93DF93D2
:10073000CF93DF92CF92FF92EF920E94A807F7012A
:1007400001900020E9F7AF01475E514066EE71E08D
:1007500089E491E00E94FA0042E050E06DE371E02C
:1007600089E491E00E94FA000E9407024B015C01BB
:100770008DB79EB708960FB6F8949EBF0FBE8DBF7B
:1007800088EE482E83E0582E612C712C0E940702BF
:10079000681979098A099B09683E734081059105AA
:1007A000A8F391E0491A510861087108E8EE8E0E2D
:1007B000E3E09E1EA11CB11C4114510461047104AC
:1007C00029F780E090E0892B09F48ACF0E94640128
:1007D000882309F485CF0E94000082CFE9E4F1E08C
:1007E0001382128288EE93E0A0E0B0E084839583C8
:1007F000A683B78384E091E09183808385EC90E0C9
:100800009587848784EC90E09787868780EC90E0DA
:10081000918B808B81EC90E0938B828B82EC90E0CB
:10082000958B848B86EC90E0978B868B118E128E45
:10083000138E148E0895EF920F931F93CF93DF932F
:10084000E80134E047FD34E1042E000C550B57FF5E
:1008500003C0519541955109E32E022F242FAE017B
:100860000E943904CE01DF91CF911F910F91EF903B
:100870000895A9E0B0E0EFE3F4E00C9476066A0195
:10088000F22EB02E102FFBE3AF2EA01608F41BE3C0
:100890001F5F012F27E0AE014F5F5F4F0E94980559
:1008A000BC018981982F9970913009F43FC09BE277
:1008B000E1FC04C09E2D9170E0FC3AC05E2D5071A9
:1008C000E82FE87083FF46C084E0911101C083E007
:1008D000EF2DE81B8F1508F0E0E0D6018E2F20E207
:1008E000552351F1992329F0D6019C93C601019615
:1008F0006C0196012D5F3F4FE2FE24C08EE4D601CD
:100900008C9391E411969C93119712968C93D90134
:100910008E2F90E281111BC0E20FF32FF11D108288
:100920008EEF9FEF2996ECE00C9492069DE2C6CFE5
:1009300090E2C4CF2D9381508111FCCFCE0ED11CFB
:10094000E0E0D0CF8EE6D6018C9391E6DBCF9D938D
:100950008150E0CF482F447082FF3DC084E0911168
:1009600001C083E08F1510F4EF2DE81BD6018E2F08
:1009700020E2552309F1992329F0D6019C93C60161
:1009800001966C0196012D5F3F4FE2FE1BC089E48A
:10099000D6018C938EE411968C93119786E412966F
:1009A0008C93D9018E2F90E2882309F4B5CF9D93C3
:1009B0008150FACF2D9381508111FCCFCE0ED11CE6
:1009C000E0E0D9CF89E6D6018C938EE611968C9320
:1009D000119786E6E4CF9B0177FF02C030E020E06C
:1009E000A1E0B0E0911102C0B0E0A0E0F9013196C1
:1009F000AE0FBF1F8B2C912CBB2009F461C054019A
:100A0000EFEFAE1ABE0AAA0DBB1DFA161B0619F0AF
:100A100014F04F2D4A1B511188C0E3FC59C07601D8
:100A2000A42FB0E2A1114FC0C40ED11C992309F428
:100A30005BC040E0D6011196F60190836D0155230D
:100A400009F448C0012F060F9A81582F507184FF76
:100A500003C0913309F4015010160CF047C009305F
:100A600008F008E0EEE2FE2E5B01A01AB108850155
:100A70009194819491082F3F320729F4D601FC927A
:100A8000F60131966F016217730794F1021713078D
:100A90007CF5DB01A21BB30BAA24A394B12CAC0EF2
:100AA000BD1EAA0DBB1D11968C9121503109D60196
:100AB000119628153905F4F0F60180836D01DBCF1E
:100AC000B12CA12CA0CFF701B1937F01A150AACFE7
:100AD0009111B0CFD601942F50E302C05D93915095
:100AE0009111FCCFC40ED11C40E0ACCF01E0BACFD5
:100AF00080E3DBCF6217730731F4963388F49533C4
:100B000011F4552369F0F6018083FD01842F90E2F2
:100B1000811108C0A40FB11D1C9290E080E002CFAB
:100B200081E3F1CF91938150F3CF911183CF8ACF9D
:100B3000283008F027E03327DA01990F311D87FDAF
:100B4000916000966105710539F432602E5F3D9326
:100B500030E32A95E1F708959F3F30F08038710522
:100B6000610509F03C5F3C5F3D93913008F080687F
:100B7000911DDF93CF931F930F93FF92EF92192F45
:100B8000987F9695E92F96959695E90FFF27EE5356
:100B9000FF4F99273327EE24FF24A701E701059093
:100BA0000894079428F4360FE71EF81E491F511DBC
:100BB000660F771F881F991F0694A1F70590079469
:100BC00028F4E70EF81E491F561FC11D770F881F16
:100BD000991F661F0694A1F70590079428F4F80E54
:100BE000491F561FC71FD11D880F991F661F771FEA
:100BF0000694A1F70590079420F4490F561FC71FCC
:100C0000D81F990F661F771F881F0694A9F7849134
:100C10001095177041F0D695C79557954795F7945D
:100C2000E7941A95C1F7E8E6F0E0689415901591FD
:100C300035916591959105907FE27395E118F10AE0
:100C4000430B560BC90BD009C0F7E10CF11E431F33
:100C5000561FC91FD01D7EF4703311F48A95E6CF5C
:100C6000E894015030F0080F0AF40027021708F446
:100C7000202F2395022F7A3328F079E37D932A954C
:100C8000E9F710C07D932A9589F6069497956795A4
:100C9000379517951794E118F10A430B560BC90BBA
:100CA000D00998F023957E9173957A3308F070E31C
:100CB0007C932013B8F77E9170617D9330F083951B
:100CC00071E37D9370E32A95E1F71124EF90FF9093
:100CD0000F911F91CF91DF91992787FD90950895EE
:100CE0002F923F924F925F926F927F928F929F923C
:100CF000AF92BF92CF92DF92EF92FF920F931F932A
:100D0000CF93DF93CDB7DEB7CA1BDB0B0FB6F894DA
:100D1000DEBF0FBECDBF09942A88398848885F841A
:100D20006E847D848C849B84AA84B984C884DF808B
:100D3000EE80FD800C811B81AA81B981CE0FD11D6F
:100D40000FB6F894DEBF0FBECDBFED010895E89455
:100D500009C097FB3EF490958095709561957F4F03
:100D60008F4F9F4F9923A9F0F92F96E9BB279395B1
:100D7000F695879577956795B795F111F8CFFAF4C1
:100D8000BB0F11F460FF1BC06F5F7F4F8F4F9F4FF2
:100D900016C0882311F096E911C0772321F09EE850
:100DA000872F762F05C0662371F096E8862F70E0B6
:100DB00060E02AF09A95660F771F881FDAF7880F90
:100DC0009695879597F908950E94F7060C94680701
:100DD0000E945A0738F00E94610720F0952311F015
:100DE0000C9451070C94570711240C949C070E94F3
:100DF000790770F3959FC1F3950F50E0551F629FDF
:100E0000F001729FBB27F00DB11D639FAA27F00D63
:100E1000B11DAA1F649F6627B00DA11D661F829F8A
:100E20002227B00DA11D621F739FB00DA11D621F6F
:100E3000839FA00D611D221F749F3327A00D611D8C
:100E4000231F849F600D211D822F762F6A2F11246E
:100E50009F5750409AF0F1F088234AF0EE0FFF1FA1
:100E6000BB1F661F771F881F91505040A9F79E3FF8
:100E7000510580F00C9451070C949C075F3FE4F3FC
:100E8000983ED4F3869577956795B795F795E7954E
:100E90009F5FC1F7FE2B880F911D9695879597F957
:100EA000089597F99F6780E870E060E008959FEFEC
:100EB00080EC089500240A941616170618060906F1
:100EC000089500240A9412161306140605060895C0
:100ED000092E0394000C11F4882352F0BB0F40F448
:100EE000BF2B11F460FF04C06F5F7F4F8F4F9F4F88
:100EF000089557FD9058440F551F59F05F3F71F00A
:100F00004795880F97FB991F61F09F3F79F0879570
:100F10000895121613061406551FF2CF4695F1DFF9
:100F200008C0161617061806991FF1CF8695710589
:100F3000610508940895E894BB2766277727CB01BD
:100F400097F90895EE0FFF1F0590F491E02D099495
:100F5000AEE0B0E0EEEAF7E00C947E060D891E8963
:100F600086E08C831A8309838FEF9FE79E838D83AE
:100F7000AE01475E5F4F6F89788DCE0101960E946A
:100F8000CB072F813885020F131FF80110822E9690
:100F9000E4E00C949A06ABE0B0E0E1EDF7E00C94ED
:100FA00070067C013B018A01FC0117821682838155
:100FB00081FFC8C1CE0101965C01F7019381F30165
:100FC00093FD859193FF81913F01882309F453C1DB
:100FD000853239F493FD859193FF81913F018532EC
:100FE00029F4B70190E00E94BB09E7CF912C212C96
:100FF000312CFFE1F31538F08B3211F190F480328F
:1010000009F1833229F137FC3CC020ED280F2A304A
:1010100050F536FE20C08AE0989E200D1124922EB5
:1010200006C08D3291F0803371F7689430F8F30187
:1010300093FD859193FF81913F018111DACF21C00A
:10104000689431F8689432F8F2CF689433F8EFCFAF
:10105000689434F8ECCFEAE02E9E200D1124222E65
:10106000689435F8E4CF8E3229F436FC04C16894D4
:1010700036F8DDCF8C3619F4689437F8D8CF883637
:10108000B1F2982F9F7D95549330E0F08336A1F113
:101090008337C1F1833509F063C02801F2E04F0EB8
:1010A000511CF801C080D180692D70E036FC02C06F
:1010B0006FEF7FEFC6010E94A5094C01689437F8D5
:1010C00082010AC00C5F1F4FFFE3F98388248394D9
:1010D000912C6501E89437F833FE2DC0522C811411
:1010E000910471F5552009F468CFB70180E290E0D2
:1010F0000E94BB095A94F6CFF801808189830E5F64
:101100001F4FE4CF2801F2E04F0E511CF801C080C0
:10111000D180692D70E036FC02C06FEF7FEFC60111
:101120000E94B0094C018201D5CFB70180E290E066
:101130000E94BB092A942814190409F0B0F7CECFF5
:10114000F60137FC859137FE81916F01B70190E080
:101150000E94BB0951105A94F1E08F1A9108BFCF39
:10116000843619F0893609F077C0F80137FE6BC074
:1011700060817181828193810C5F1F4FF32DFF7617
:101180003F2E97FF09C090958095709561957F4F90
:101190008F4F9F4F689437F82AE030E0A5010E94F6
:1011A000EB09C82ECA188C2C432C36FE0CC0E894D0
:1011B00040F8C91440F434FE05C032FC03C0F32DDE
:1011C000FE7E4F2E892C44FE95C0FE01EC0DF11DD4
:1011D0008081803309F087C0242D297E422E842D02
:1011E0008870582E43FC95C040FE8FC09C2C821402
:1011F00018F42C0C922C981844FE91C0B70180E38F
:1012000090E00E94BB0942FE09C088E790E041FEE1
:1012100002C088E590E0B7010E94BB09C91408F438
:101220008AC0CA94D12C9FEFC91AD90ACA0CDB1CF8
:10123000F60182916F01B70190E00E94BB09AC14E6
:10124000BD04B1F74FCF60817181072E000C880B70
:10125000990B0E5F1F4F92CFD32CE894D4F82AE05D
:1012600030E0853739F1232D297FD22E8F3601F1D9
:1012700048F48835A9F0F701868197812B96E2E141
:101280000C948C06803749F08837A9F7D4FE02C049
:101290006894D2F820E130E00DC06894D4F8F6CF1D
:1012A00034FE03C0822F8660D82E20E132E002C0D7
:1012B00028E030E0F801D7FE0FC0608171818281A3
:1012C00093810C5F1F4FA5010E94EB09C82ECA181D
:1012D0003D2CE89437F867CF6081718190E080E021
:1012E0000E5F1F4FF0CF42FC02C0839478CF8394EF
:1012F000839475CF842D867809F471CFF6CFB7012A
:1013000080E290E00E94BB0983948214C0F3512CC8
:1013100073CF522C5818821408F46ECFF8CF842D56
:10132000867809F47BCF8BE241FE80E247FC8DE2B8
:10133000B70190E071CFB70180E390E00E94BB0954
:101340009A946CCF8FEF9FEF99CFFC01059061507D
:1013500070400110D8F7809590958E0F9F1F0895CB
:10136000FC016150704001900110D8F78095909574
:101370008E0F9F1F08950F931F93CF93DF93182F06
:10138000092FEB018B8181FD09C01FEF0FEF812F2A
:10139000902FDF91CF911F910F91089582FF14C07C
:1013A0002E813F818C819D81281739073CF4E8818B
:1013B000F981CF0101969983888310838E819F8163
:1013C00001969F838E83E3CFE885F985812F099568
:1013D000892BA1F3DACFFA01AA27283051F1203165
:1013E00081F1E8946F936E7F6E5F7F4F8F4F9F4FB9
:1013F000AF4FB1E03ED0B4E03CD0670F781F891FFB
:101400009A1FA11D680F791F8A1F911DA11D6A0FC8
:10141000711D811D911DA11D20D009F468943F917B
:101420002AE0269F11243019305D3193DEF6CF017A
:101430000895462F4770405D4193B3E00FD0C9F740
:10144000F6CF462F4F70405D4A3318F0495D31FDAD
:101450004052419302D0A9F7EACFB4E0A695979500
:10146000879577956795BA95C9F7009761057105D6
:1014700008959B01AC010A2E069457954795379520
:101480002795BA95C9F7620F731F841F951FA01D7A
:101490000895F894FFCF000000009A01FA00270198
:1014A000E701580136014A0156616C6F7220646988
:1014B000676974616C3A20256420646520656E74E8
:1014C0007261646120616E616C6F676963613A206B
:0614D0002573000D0A0067
:107E0000112484B714BE81FFF0D085E080938100F7
:107E100082E08093C00088E18093C10086E0809377
:107E2000C20080E18093C4008EE0C9D0259A86E02C
:107E300020E33CEF91E0309385002093840096BBD3
:107E4000B09BFECF1D9AA8958150A9F7CC24DD24C4
:107E500088248394B5E0AB2EA1E19A2EF3E0BF2EE7
:107E6000A2D0813461F49FD0082FAFD0023811F036
:107E7000013811F484E001C083E08DD089C08234E0
:107E800011F484E103C0853419F485E0A6D080C0E4
:107E9000853579F488D0E82EFF2485D0082F10E0AE
:107EA000102F00270E291F29000F111F8ED06801E7
:107EB0006FC0863521F484E090D080E0DECF843638
:107EC00009F040C070D06FD0082F6DD080E0C81688
:107ED00080E7D80618F4F601B7BEE895C0E0D1E017
:107EE00062D089930C17E1F7F0E0CF16F0E7DF06D8
:107EF00018F0F601B7BEE89568D007B600FCFDCFD4
:107F0000A601A0E0B1E02C9130E011968C91119780
:107F100090E0982F8827822B932B1296FA010C0160
:107F200087BEE89511244E5F5F4FF1E0A038BF0790
:107F300051F7F601A7BEE89507B600FCFDCF97BE46
:107F4000E89526C08437B1F42ED02DD0F82E2BD052
:107F50003CD0F601EF2C8F010F5F1F4F84911BD097
:107F6000EA94F801C1F70894C11CD11CFA94CF0C13
:107F7000D11C0EC0853739F428D08EE10CD085E9AC
:107F80000AD08FE07ACF813511F488E018D01DD067
:107F900080E101D065CF982F8091C00085FFFCCF94
:107FA0009093C60008958091C00087FFFCCF809118
:107FB000C00084FD01C0A8958091C6000895E0E648
:107FC000F0E098E1908380830895EDDF803219F02E
:107FD00088E0F5DFFFCF84E1DECF1F93182FE3DFCA
:107FE0001150E9F7F2DF1F91089580E0E8DFEE27F6
:047FF000FF270994CA
:027FFE00040479
:00000001FF
