:100000000C9435060C9466060C9466060C946606F1
:100010000C9466060C9466060C9466060C946606B0
:100020000C9466060C9466060C9466060C946606A0
:100030000C9466060C9466060C9466060C94660690
:100040000C9466060C9466060C9466060C94660680
:100050000C9466060C9466060C9466060C948C133D
:100060000C9466060C9466060C9466060C94660660
:100070000C9466060C9466060C9466060C94660650
:100080000C9466060C9466060C9466060C94660640
:100090000C9466060C9466060C9466060C94D613B3
:1000A0000C9466060C9466060C9466060C94660620
:1000B0000C9466060C9466060C9466060C94660610
:1000C0000C9466060C9466060C9466060C94660600
:1000D0000C9466060C9466060C9466060C946606F0
:1000E0000C9466060C942F130C94FC090C94651068
:1000F0000C9456100C94C30E0C94B30E0C94D9129D
:100100000C9433070C94EF0F0C940D070C94080D0E
:100110000C9421070C948A060C9478100C943907DF
:100120000C94FE060C94BE190C94FA140C94DF0D7A
:100130000C94FA080C94360C0C9417070C941307C3
:100140000C9487060C9402070C941D070C94E70688
:100150000C94AC100C942F070C9489060C947F100F
:100160000C942B070C9488060C94DB0E0C94B108AD
:100170000C9406070C9441090C94670D0C94430FE2
:100180000C94CF0E0C94EC060C94FC0D0C940A0706
:100190000C9425070C943D0700000000003E5B4FC7
:1001A0005B3E3E6B4F6B3E1C3E7C3E1C183C7E3CD7
:1001B000181C577D571C1C5E7F5E1C00183C1800E5
:1001C000FFE7C3E7FF0018241800FFE7DBE7FF3075
:1001D000483A060E2629792926407F050507407FE3
:1001E00005253F5A3CE73C5A7F3E1C1C08081C1C56
:1001F0003E7F14227F22145F5F005F5F06097F014C
:100200007F006689956A606060606094A2FFA29436
:1002100008047E040810207E201008082A1C080804
:100220001C2A08081E101010100C1E0C1E0C303852
:100230003E3830060E3E0E06000000000000005F53
:1002400000000007000700147F147F14242A7F2A6F
:100250001223130864623649562050000807030031
:10026000001C2241000041221C002A1C7F1C2A087D
:10027000083E0808008070300008080808080000E0
:1002800060600020100804023E5149453E00427F54
:10029000400072494949462141494D331814127FA3
:1002A0001027454545393C4A494931412111090743
:1002B0003649494936464949291E000014000000C4
:1002C0004034000000081422411414141414004196
:1002D00022140802015909063E415D594E7C121153
:1002E000127C7F494949363E414141227F4141418B
:1002F0003E7F494949417F090909013E4141517306
:100300007F0808087F00417F41002040413F017F76
:10031000081422417F404040407F021C027F7F043E
:1003200008107F3E4141413E7F090909063E415187
:10033000215E7F09192946264949493203017F0177
:10034000033F4040403F1F2040201F3F4038403F78
:10035000631408146303047804036159494D43008E
:100360007F4141410204081020004141417F0402C5
:10037000010204404040404000030708002054545C
:1003800078407F284444383844444428384444283A
:100390007F385454541800087E090218A4A49C788D
:1003A0007F0804047800447D40002040403D007FE9
:1003B0001028440000417F40007C047804787C08C9
:1003C0000404783844444438FC182424181824249D
:1003D00018FC7C08040408485454542404043F4482
:1003E000243C4040207C1C2040201C3C4030403CB1
:1003F00044281028444C9090907C4464544C440011
:100400000836410000007700000041360800020174
:100410000204023C2623263C1EA1A161123A404060
:10042000207A3854545559215555794122545478DD
:1004300042215554784020545579400C1E52721276
:1004400039555555593954545459395554545800FF
:1004500000457C410002457D420001457C407D1203
:1004600011127DF0282528F07C5455450020545465
:100470007C547C0A097F4932494949323A44444410
:100480003A324A4848303A4141217A3A424020784B
:10049000009DA0A07D3D4242423D3D4040403D3C4C
:1004A00024FF2424487E4943662B2FFC2F2BFF0971
:1004B00029F620C0887E0903205454794100004465
:1004C0007D413048484A32384040227A007A0A0A50
:1004D000727D0D19317D2629292F282629292926C3
:1004E00030484D4020380808080808080808382F08
:1004F00010C8ACBA2F102834FA00007B0000081492
:100500002A142222142A14085500550055AA55AA67
:1005100055AAFF55FF55FF000000FF00101010FF07
:1005200000141414FF001010FF00FF1010F010F062
:10053000141414FC001414F700FF0000FF00FF1453
:1005400014F404FC141417101F10101F101F14149F
:10055000141F00101010F0000000001F10101010E9
:100560001F10101010F010000000FF1010101010DD
:1005700010101010FF10000000FF140000FF00FF1B
:1005800000001F10170000FC04F4141417101714B7
:1005900014F404F40000FF00F714141414141414D9
:1005A000F700F7141414171410101F101F1414144C
:1005B000F4141010F010F000001F101F0000001FB6
:1005C00014000000FC140000F010F01010FF10FFE9
:1005D000141414FF141010101F00000000F010FF7E
:1005E000FFFFFFFFF0F0F0F0F0FFFFFF0000000062
:1005F00000FFFF0F0F0F0F0F3844443844FC4A4AE6
:100600004A347E02020606027E027E02635549419A
:10061000633844443C04407E201E2006027E0202D1
:1006200099A5E7A5991C2A492A1C4C7201724C30E5
:100630004A4D4D303048784830BC625A463D3E49BC
:100640004949007E0101017E2A2A2A2A2A44445F60
:10065000444440514A444040444A51400000FF0154
:1006600003E080FF000008086B6B08361236243662
:10067000060F090F060000181800000010100030C7
:1006800040FF0101001F01011E00191D1712003C4F
:100690003C3C3C0000000000000103070F1F3F7FAF
:1006A0000080C0E0F0F8FCFE00000A0B02090C0D0F
:1006B0000E08070304010000000000000000000015
:1006C000000000000000000000000000000000002A
:1006D00000000000121110000000000000000000E7
:1006E0000000000000000000000000000000DB40EF
:1006F000A4A62EAF2000A1C8D300408DAED580A8FF
:100700000000600000000000000000000000000089
:1007100000E00000000000000000000000000001F8
:10072000E00000000000000000000000000001F0F8
:100730000000000000000000000000000003F000C6
:1007400000000000000000000000000007F00000B2
:10075000000000000000000000000007F80000009A
:10076000000000000000000000000FF8000000037F
:10077000C0007E000001E0007F0FF800000003C011
:1007800000FE000001E000FFEFF800000003C000E1
:10079000FE000001E000FFFFF800000003C000F0D1
:1007A0000000000F007FFE7FC0000003C000F000CB
:1007B00000000F003FFE7FF83FF1FBCFFCFEF3BCD3
:1007C0003DEFE01FFE7FFF7FFBFFDFFEFEFFBC3D36
:1007D000EFE01FC6FFFF7FFBFFDFFEFEFFBC3DEF2C
:1007E000E00FE3C7FE787BC3DE1EF0FFBC3DEF00E9
:1007F00007FF87FC787BC3DE1EF0F83C3DEF00016D
:10080000FFFFF0007BC3C01EF0F03C3DEF0001F3A2
:100810007FE03FFBC3CFFEF0F03C3DEF0003E33F42
:10082000807FFBC3DFFEF0F03C3DEF0007E73C00BC
:10083000787BC3DE1EF0F03C3DEF0007FFBE007882
:100840007BC3DE1EF0F03C3DEF0007FFFE00787B2F
:10085000C3DE1EF0F03C3DEF000FFFFE007FFBFF0C
:10086000DFFEF0F03FFDEFE00FFFFF007FFBFFDF5B
:10087000FEF0F03FFDEFE00FF9FF003E79F9CF9E6B
:10088000F0F01F3DE7E01FF1FF0000000000000056
:1008900000000000001F80FF007FFFFFFFFFFFFF41
:1008A000FFFFFFE01C007F007FFFFFFFFEB46D88AD
:1008B0008D18E000001F007FFFFFFFFE95AD7DB5A6
:1008C00077E000000F007FFFFFFFFEA5AD9D8D19B3
:1008D000E0000006007FFFFFFFFEB5ADEDB57EE056
:1008E0000000000000018000000000000000000087
:1008F000038000000000000000000007C0000000AE
:1009000000000000000007C0000000000000000020
:10091000000FC00000000000000000001FE0000009
:10092000000000000000001FE000000000000000C8
:1009300000003FE00000000000000000003FF00069
:1009400000000000000000007FF000000000000038
:10095000001FF87FF0000000000000003FFE7FF065
:10096000000000000000003FFF7FF00000000000DA
:1009700000001FFFFBE0000000000000000FFFF977
:10098000FFC00000000000000FFFF9FFF8000000AA
:1009900000000007FFF1FFFF00000000000003FC63
:1009A00073FFFF80000000000001FE3FFFFF80009A
:1009B0000000000000FF1E0FFF000000000000000C
:1009C0007FFE1FFC000000000000003FFFFFF8005A
:1009D0000000000000000FDFFFE00000000000004A
:1009E000001F19FFC0000000000000003F3CFF0096
:1009F000000000000000007E7CF800000000000005
:100A000000007FFE7C0000000000000000FFFFFCF3
:100A10000000000000000000FFFFFE0000000000DA
:100A2000000000FFFFFE0000000000000001FFEFDB
:100A3000FE0000000000000001FFCFFE00000000EB
:100A400000000003FF07FE0000000000000003FCA0
:100A500007FE0000000000000003F003FE0000009D
:100A600000000000018000FE000000000000000007
:100A700000007E000000000000000000003E0000BA
:100A800000000000000000000C0000000000000753
:100A90008000FC000003C0000000078001FC000093
:100AA00003C0000000078001FC000003C00000003C
:100AB000078001E00000001E000000078001E00048
:100AC00000001E007FE3F79FF9FDE7787BDFC0FFA2
:100AD000F7FFBFFDFDFF787BDFC0FFF7FFBFFDFD28
:100AE000FF787BDFC0F0F787BC3DE1FF787BDE005D
:100AF000F0F787BC3DE1F0787BDE0000F787803DB2
:100B0000E1E0787BDE007FF7879FFDE1E0787BDE28
:100B100000FFF787BFFDE1E0787BDE00F0F787BCE0
:100B20003DE1E0787BDE00F0F787BC3DE1E0787BDB
:100B3000DE00F0F787BC3DE1E0787BDE00FFF7FFE9
:100B4000BFFDE1E07FFBDFC0FFF7FFBFFDE1E07F1E
:100B5000FBDFC07CF3F39F3DE1E03E7BCFC00000B4
:100B6000000000000000000000FFFFFFFFFFFFFF8C
:100B7000FFFFFFC0FFFFFFFFFD68DB111A31C0FF61
:100B8000FFFFFFFD2B5AFB6AEFC0FFFFFFFFFD4B8E
:100B90005B3B1A33C0FFFFFFFFFD6B5BDB6AFDC0F1
:100BA0002200FF210000002200250028002B002E3B
:100BB000003100340002010000050108010B0100B2
:100BC000002100240027002A002D003000330001FE
:100BD000010000040107010A0105050505070508D4
:100BE000080808020202020A0A08080404040401B0
:100BF00001010101010101030303030303030304D2
:100C00000707070C0C0C0C0C0C0C0C020202020661
:100C1000060606060606060B0B0B0B0B0B0B0B0151
:100C200002102020080810204010204080020102FD
:100C300001080402010102040810204080804020C5
:100C40001008040201800402018040201008040200
:100C5000010804020101020408102040800102047E
:100C6000081020408000FA14BE1911241FBECFEFD7
:100C7000D1E2DEBFCDBF00E00CBF12E0A0E0B2E0E9
:100C8000E4E7F6E300E00BBF02C007900D92AE353B
:100C9000B107D9F723E0AEE5B2E001C01D92A2375B
:100CA000B207E1F716E0C4E3D6E000E006C0219702
:100CB0000109802FFE010E94EF19C333D10780E0A4
:100CC0000807A9F70E9456150C94281B0C940000E5
:100CD00090E0FC01E15EF34F24918752944FFC01B8
:100CE0008491882399F090E0880F991FFC01E154CA
:100CF000F44FA591B491FC01EB55F44F859194917B
:100D00008FB7F894EC91E22BEC938FBF0895089580
:100D100008950895AF92BF92CF92DF92EF92FF9223
:100D20000F931F93CF93DF936C017B018B01040F13
:100D3000151FEB015E01AE18BF08C017D10759F0AF
:100D40006991D601ED91FC910190F081E02DC601F1
:100D50001995892B79F7C501DF91CF911F910F91DB
:100D6000FF90EF90DF90CF90BF90AF900895282F25
:100D700030E0F901E855F94F9491F901E15EF34F44
:100D800044912752344FF9012491222309F435C0AC
:100D9000992311F191509231F8F4E92FF0E088276E
:100DA000EB52F94F8F4F0C94EF1906070A07E7062D
:100DB000FE060207EC060D07130717071D0721079C
:100DC00025072B072F07EC06330739073D078091CE
:100DD00080008F7780938000E22FF0E0EE0FFF1FFE
:100DE000EB55F44FA591B4918FB7F894EC91611144
:100DF00048C040954E234C938FBF0895809180004A
:100E00008F7DE8CF80918000877FE4CF84B58F7796
:100E100084BDE2CF84B58F7DFBCF8091B0008F770A
:100E20008093B000D9CF8091B0008F7DF9CF8091B1
:100E300090008F7780939000CFCF809190008F7D2E
:100E4000F9CF80919000877FF5CF8091A0008F77B8
:100E50008093A000C1CF8091A0008F7DF9CF8091B9
:100E6000A000877FF5CF809120018F7780932001AC
:100E7000B3CF809120018F7DF9CF80912001877FB2
:100E8000F5CF4E2BB8CF3FB7F89480910F039091D8
:100E90001003A0911103B091120326B5A89B05C0C1
:100EA0002F3F19F00196A11DB11D3FBFBA2FA92FE9
:100EB000982F8827BC01CD01620F711D811D911DE6
:100EC00042E0660F771F881F991F4A95D1F7089552
:100ED0008F929F92AF92BF92CF92DF92EF92FF924A
:100EE0004B015C010E9443076B017C010E94430798
:100EF0006C197D098E099F09683E73408105910533
:100F0000A8F321E0821A9108A108B10888EEC80E62
:100F100083E0D81EE11CF11C81149104A104B104EA
:100F200029F7FF90EF90DF90CF90BF90AF909F9008
:100F30008F900895EF92FF920F931F93CF93DF93BB
:100F4000EC01EC80FD806E157F050CF070C057FF42
:100F500004C0240F351F50E040E08E819F81FA01CC
:100F6000E20FF31F8E179F071CF49C01241B350B07
:100F7000121613060CF05BC0922F842F869586956F
:100F800086958E9DD0018F9DB00D11246A0F7B1F19
:100F9000AF8DB8A1A60FB71F477049F188E0841B39
:100FA000482F682F70E0FB01E056F94FE4912817B5
:100FB00008F063C0621B71092FEF30E002C0359565
:100FC00027956A95E2F7E2230130110539F0B0F177
:100FD0000230110561F58C91E82702C08C91E82B55
:100FE000EC93941720F12C813D81A20FB31FE92FC0
:100FF000E41BE83078F00230110521F58E2F9C912A
:1010000090959C932C813D81A20FB31F885088300E
:10101000B0F7E770EE2359F0F0E0E856F94FE491AD
:1010200001301105F9F010F10230110519F1DF91CD
:10103000CF911F910F91FF90EF900895E0958C91C3
:10104000E823CECF81E00115110509F480E08195F8
:101050009E2F8C932C813D81A20FB31F9850983006
:10106000C0F7D7CF8C91E82BEC93E1CFE0958C9132
:10107000E823FACF8C91E827F7CF0130110509F466
:10108000ADCFE0F20230110509F4A5CFAE0DBF1DC2
:10109000AECF0F931F93CF93DF9377FF04C0260F3C
:1010A000371F70E060E0DC011496CD91DC91FB010C
:1010B000E20FF31FCE17DF071CF49E01261B370B30
:1010C000121613064CF5FA0157FD3796A3E0F59575
:1010D000E795AA95E1F7EC9FD001ED9FB00DFC9F3D
:1010E000B00D11246A0F7B1FDC015F96ED91FC911E
:1010F000E60FF71F4770552781E090E001C0880F89
:101100004A95EAF7482F0130110559F0A8F02E0F43
:101110003F1F02301105E1F0DF91CF911F910F9138
:1011200008952E0F3F1FE217F307B1F38191DF01FE
:101130001197842B8C93F7CF80952E0F3F1FE217CA
:10114000F30751F39191DF01119798239C93F7CF07
:10115000E217F30709F38191DF01119784278C933C
:10116000F7CF0F931F93FA01DC0156964C915697D7
:101170004230E9F04330A1F1413061F514964D91D0
:101180005C91DA01AE1BBF0BFD01E21BF30B77FD97
:101190000BC0DC0116964D915C916417750724F421
:1011A000AB01BF010E9449081F910F910895149649
:1011B0004D915C91DA01A61BB70BBD01615071091D
:1011C000DC0116964D915C91DA01AE1BBF0BFD015F
:1011D000E21BF30B77FDE8CFAF010E949A07E4CF43
:1011E00016964D915C91DA01A61BB70BBD016150BB
:1011F0007109CDCF0F931F93FA01DC0156964C91E4
:1012000056974230A9F0433091F1413019F51496C8
:101210004D915C91DA01AE1BBF0BFD013197F7FDDB
:1012200004C0AB01BF010E949A071F910F9108955E
:1012300014964D915C91DA01A61BB70BBD01DC0140
:1012400016964D915C91DA01AE1BBF0BFD013197F3
:10125000621B730BF7FDE9CFDC0116964D915C9193
:10126000E417F50714F7AF010E944908DECF169680
:101270004D915C91DA01A61BB70BBD01621B730B8C
:10128000CECFFC0177FD64C0808591856817790712
:101290000CF05EC057FD5CC08285938548175907E6
:1012A0000CF056C086898230B1F0833029F181304C
:1012B00041F484819581841B950BAB01BC01615085
:1012C00071092130310509F108F443C0223031059C
:1012D00009F463C0089584819581DC01A61BB70BD6
:1012E000BD016150710986819781DC01A41BB50B9A
:1012F000AD0141505109E5CF86819781861B970B3F
:10130000BA01AC0141505109DCCFCA0157FD079623
:10131000A3E095958795AA95E1F7A481B5818A9F69
:1013200090018B9F300D9A9F300D1124620F731F17
:10133000078CF0A1E02DE60FF71F4770552721E03D
:1013400030E001C0220F4A95EAF78081822B80832A
:101350000895CA0157FD079633E0959587953A950C
:10136000E1F7A481B5818A9F90018B9F300D9A9FF0
:10137000300D1124620F731F078CF0A1E02DE60FD2
:10138000F71F4770552781E090E001C0880F4A950C
:10139000EAF7809590818923DACFCA0157FD079635
:1013A00023E0959587952A95E1F7A481B5818A9FD9
:1013B00090018B9F300D9A9F300D1124620F731F87
:1013C000078CF0A1E02DE60FF71F4770552721E0AD
:1013D00030E001C0220F4A95EAF780818227B7CF1B
:1013E00008958EBD00000DB407FEFDCF8EB50895A3
:1013F0008CBD9DBD08950895FC016370668B84814A
:10140000958126813781613039F0633029F09187E9
:101410008087338722870895318720879387828743
:1014200008952F923F924F925F926F927F928F9288
:101430009F92AF92BF92CF92DF92EF92FF920F9363
:101440001F93CF93DF93CDB7DEB76A970FB6F894AB
:10145000DEBF0FBECDBF9A8F898F7A8369834A0121
:10146000D22E18870F833701BC2CDC0159962D91A1
:101470003C915A972115310509F015C118968D91A7
:101480009C911997681779070CF0D7C11A968D911E
:101490009C91481759070CF0D0C14C2C512CB6E048
:1014A000CB9E600D711D11247C876B871616170665
:1014B0000CF0C3C1EA2DF0E0FA87E98793E0EE0F64
:1014C000FF1F9A95E1F7F88BEF87CF01840F951FE7
:1014D000181619060CF0B1C1A98DBA8D58968C91C9
:1014E000811104C0BFEABD1508F4D394A98DBA8D4B
:1014F000ED91FC9111970284F385E02DCD011995B2
:10150000B5E0DB9EC0011124E981FA81FC83EB8305
:10151000312C212C9C0128563E4F388F2F8B4A2D81
:1015200050E05E8B4D8BEF89F88DE20DF31D4491F9
:101530009E828D82D12CC12C69817A81620D731DAE
:101540007A8B698B842F90E09C8B8B8BE98DFA8D45
:10155000A081B18140FF82C0F1E0BF126FC0AF1225
:101560006DC01C96ED91FC912F813885A4014C0D26
:101570005D1D69897A89898D9A8D1995EB89FC8918
:10158000F595E7954E2F5FEFC51AD50A6D817E81DF
:101590008D899E89680F791F7E836D8398E0C916B7
:1015A000D10481F6AFEF2A1A3A0AEB81FC81E40DEF
:1015B000F51DFC83EB83F5E02F16310409F0B3CF62
:1015C0002F81388526153705B9F0A98DBA8DED9193
:1015D000FC91B1E0BB1257C0AB1255C069817A8152
:1015E0006B5F7F4F0088F189E02D830128E030E0B8
:1015F000A401898D9A8D1995A98DBA8DED91FC91D3
:1016000011970688F789E02DCD016A960FB6F894F8
:10161000DEBF0FBECDBFDF91CF911F910F91FF9025
:10162000EF90DF90CF90BF90AF909F908F907F9082
:101630006F905F904F903F902F9019941E96ED9170
:10164000FC91EF80F88409851A8592014D815E81B5
:101650006B817C81898D9A8D199590CF2F813885EA
:101660002615370509F48ACF31E0B31207C0A3125B
:1016700005C01C96ED91FC91930178CF1E96ED91DB
:10168000FC917301E0CF6B857C8564197509068434
:10169000F785E02D73010F8518899201A401898DCA
:1016A0009A8D1995A9CFF901349694913297459165
:1016B0005491D91AB7E0DB9E400D511D1124F90158
:1016C000259134913C8B2B8BFA0125903490FA01B3
:1016D0003296749031963491398B3296649031966B
:1016E000449041E04C1518F04A1508F07FC0662D73
:1016F000062C000C770B7C836B83842D042C000C50
:10170000990B9E838D83A98DBA8DED91FC911197D4
:101710000284F385E02DCD011995512CD12CC12CDB
:10172000EA2DF0E0FA87E9872B2D30E03C872B8704
:10173000A401440D511D47FC5A95588F4F8B698168
:101740007A81660D711D67FC7A957E876D87798930
:10175000C71608F051CF2C2D30E04D815E81420F2D
:10176000531FA985BA854A9FC0014B9F900D5A9F70
:10177000900D1124FC01E80DF91DF88BEF87852DE4
:10178000612C4F89588D420F531F5E8B4D8B671410
:1017900008F050C044244394480E877041F4C101BE
:1017A0000196EB89FC89E20DF31DD4901C01D7FE54
:1017B00019C0A98DBA8DED91FC91662D70E0B1E054
:1017C000BB1219C0AB1217C02D853E85620F731F67
:1017D0000484F585E02D2F8138854D895E89898DBA
:1017E0009A8D1995DD0C6394842DD1CF1E821D82B4
:1017F0001C821B8288CF4B815C81640F751FAB8577
:10180000BC856A9FC0016B9F900D7A9F900D11243B
:1018100069817A81680F791F0684F785E02DEF8052
:10182000F88409851A859D014F855889898D9A8D7F
:101830001995D8CF570CC3948ACF6A960FB6F894EF
:10184000DEBF0FBECDBFDF91CF911F910F91FF90F3
:10185000EF90DF90CF90BF90AF909F908F907F9050
:101860006F905F904F903F902F9008958F929F922E
:10187000AF92CF92EF92FF920F931F93CF93DF938C
:10188000EC01262F898D9A8D009709F051C06A309E
:10189000D1F41D861C868D8948E0849F9001112417
:1018A0008E859F85820F931F9F878E8781E090E0B2
:1018B000DF91CF911F910F91FF90EF90CF90AF905C
:1018C0009F908F9008956D3089F3CC88AD888F8973
:1018D0008823C1F08C859D8536E0C39E800D911DC7
:1018E0001124488559854817590764F44E855F854A
:1018F0001D861C8638E0A39EC0011124840F951F0D
:101900009F878E87EA88FB88088919894E855F85BD
:101910006C857D85CE010E94110A2C898C859D8560
:1019200046E0249F800D911D11249D878C87BECF9A
:101930006A3069F41D861C86FC013896E4912D8975
:101940008E859F85E29F800D911D1124ADCF6D3056
:1019500009F4ACCFFC0134963491631708F4A6CF98
:101960003296E491E61708F4A1CFFC0132968590F7
:101970009490462F431B342F47E0349F800C911CDA
:101980001124F401329634913196E4913323A9F174
:10199000EE2399F1CC88F4013596E491AD884F8916
:1019A000442301F10E2E000CFF0BE30FF11DCE9E20
:1019B000A001CF9E500D11246C857D85460F571FC9
:1019C00068857985641775076CF44E855F851D867B
:1019D0001C86FC013896E491AE9E400D511D1124E9
:1019E0005F874E87EA88FB88088919894E855F855D
:1019F0006C857D85CE010E94110AF4013496E49134
:101A00002C898C859D85E29F800D911D11248DCFA1
:101A10006F927F928F929F92AF92BF92CF92DF92FE
:101A2000EF92FF920F931F93CF93DF93EC016B0123
:101A30005A0139014801E881F9810284F385E02DDA
:101A40001995E881F9810288F389E02D87019301D6
:101A5000A501B601CE011995A501480D591D4150AA
:101A60005109E881F9810288F389E02D9301B601DB
:101A7000CE011995E881F9810088F189E02D940162
:101A8000A501B601CE011995C60CD71CB60161504F
:101A90007109E881F9810088F189E02D9401A5019F
:101AA000CE011995E881F9810688F789E02DCE01EC
:101AB000DF91CF911F910F91FF90EF90DF90CF902A
:101AC000BF90AF909F908F907F906F9019946F927E
:101AD0007F928F929F92AF92BF92CF92DF92EF92BE
:101AE000FF920F931F93CF93DF935C01EB016A0189
:101AF000490138018701DC01ED91FC916217730700
:101B000019F5641675062CF0962D872D3A01C92E0D
:101B1000D82E9601261937092F5F3F4F048CF58D7B
:101B2000E02DA301BE01C5011995DF91CF911F9151
:101B30000F91FF90EF90DF90CF90BF90AF909F906C
:101B40008F907F906F9008954615570591F4261752
:101B5000370724F0892D4B01C22FD82F9E01281959
:101B600039092F5F3F4F068CF78DE02DA601B40198
:101B7000DACF0284F385E02D1995D501ED91FC9122
:101B80000488F589E02D83019401A601BE01C501F9
:101B90001995D501ED91FC910688F789E02DC501D5
:101BA000DF91CF911F910F91FF90EF90DF90CF9039
:101BB000BF90AF909F908F907F906F901994EF920D
:101BC000FF920F931F93DC011A960D911C911B97A6
:101BD00018962D913C911997ED91FC9100A0F1A1DF
:101BE000E02D7B0150E040E070E060E019951F912E
:101BF0000F91FF90EF9008954F925F926F927F92B6
:101C00008F929F92AF92BF92CF92DF92EF92FF920C
:101C10000F931F93CF93DF936C012B015A0139016E
:101C20004801DC01ED91FC910284F385E02D1995CA
:101C3000E201640C751CD601ED91FC91C615D70527
:101C40005CF40088F189E02D87019401A501BE01B3
:101C5000C60119952196EFCF0688F789E02DC601B8
:101C6000DF91CF911F910F91FF90EF90DF90CF9078
:101C7000BF90AF909F908F907F906F905F904F90AC
:101C800019948F929F92AF92BF92CF92DF92EF9270
:101C9000FF920F931F93CF93DF93EC015B014A01F7
:101CA0006901E881F9810284F385E02D1995950198
:101CB0002C0D3D1D21503109E881F9810488F589F9
:101CC000E02D78018401A401B501CE011995E881C8
:101CD000F9810688F789E02DCE01DF91CF911F9120
:101CE0000F91FF90EF90DF90CF90BF90AF909F90BB
:101CF0008F9019948F929F92AF92BF92CF92DF9262
:101D0000EF92FF920F931F93CF93DF93EC015B0150
:101D10004A0169017801E881F9810284F385E02DA7
:101D20001995C80CD91C860101501109E881F98167
:101D30000488F589E02D9501A401B501CE0119951E
:101D4000E881F9810688F789E02DCE01DF91CF91F6
:101D50001F910F91FF90EF90DF90CF90BF90AF90C9
:101D60009F908F901994EF92FF920F931F93DC0135
:101D7000ED91FC9100A0F1A1E02D19951F910F911B
:101D8000FF90EF9008950F931F93DC01ED91FC916C
:101D9000068CF78DE02D19951F910F9108950F93E3
:101DA0001F93DC01ED91FC91048CF58DE02D1995CC
:101DB0001F910F910895DC01ED91FC910084F18554
:101DC000E02D19943F924F925F926F927F928F9283
:101DD0009F92AF92BF92CF92DF92EF92FF920F93BA
:101DE0001F93CF93DF935C017B014A0169013901A5
:101DF00087E0680E711C93E0759467949A95E1F7FB
:101E00002B01400E511E10E000E0312CD0E0C0E06C
:101E1000CE0187709927330C892B59F4FE0183E09A
:101E2000F595E7958A95E1F7E00FF11FE80DF91DAB
:101E3000349037FE0AC021E030E0A701B5016C0FF5
:101E40007D1F8EE293E00E94DB0E2196CC16DD060C
:101E5000F9F68FEFE81AF80A060D171DE414F504D9
:101E6000A9F6DF91CF911F910F91FF90EF90DF9036
:101E7000CF90BF90AF909F908F907F906F905F902A
:101E80004F903F9008952F923F924F925F926F92A2
:101E90007F928F929F92AF92BF92CF92DF92EF92FA
:101EA000FF920F931F93CF93DF9300D000D0CDB755
:101EB000DEB73C016A013E832D83FC82EB82580130
:101EC000A41AB50AB7FE03C0B194A194B1088D80DD
:101ED0009E80861A970A97FE03C091948194910878
:101EE0008A149B045CF0902F812F0D811E819D83AD
:101EF0008E839C2D8D2D6B01692F782F0C151D0560
:101F00005CF09D818E817E836D83692F782F902F69
:101F1000812F8601C92ED82E1601201A310A2B01D5
:101F20002D813E81421A530A57FE03C051944194B9
:101F30005108710137FE03C03FEFE31AF30AF5942D
:101F4000E7948D819E81861797075CF5A1E0B0E04C
:101F5000BA83A983C016D1064CF1D301ED91FC914F
:101F60000484F585E02D2B813C81A8016D817E8163
:101F70008A149B041CF04D815E81B801C301199540
:101F8000E418F508F7FE0AC02D813E8189819A8107
:101F9000280F391F3E832D83E20CF31C0F5F1F4F68
:101FA000D9CF2FEF3FEF3A832983D4CF26960FB6B0
:101FB000F894DEBF0FBECDBFDF91CF911F910F917F
:101FC000FF90EF90DF90CF90BF90AF909F908F9059
:101FD0007F906F905F904F903F902F90089508955D
:101FE0002091C402260F3327331F21323105ECF430
:101FF0002091E802FC0190E080E0243069F082E06A
:102000000895A091C4022191AC014C555D4FA40FDD
:10201000B52FB11D2C930196861798F38091C402B9
:10202000680F6093C40280E0089581E008951092E3
:10203000E80281E08093EA021092E90261E084E123
:102040000E94B70661E085E10E94B706E9EBF0E087
:1020500080818E7F808380818D7F808388E48093E0
:10206000B80085E48093BC000895CF93DF9391E09E
:102070009093A3028823B9F0C091B800D091BA0020
:102080008091BC008A7B8093BC0060E084E10E9468
:10209000B70660E085E10E94B7060E941710D09352
:1020A000BA00C093B800DF91CF910895E091190371
:1020B00080911803E81730F4F0E0E258FD4F80817A
:1020C00090E008958FEF9FEF08959091190380910C
:1020D00018032FEF3FEF981748F4E92FF0E0E2588C
:1020E000FD4F208130E09F5F90931903C90108954F
:1020F0008091180390911903891B990B0895CF9231
:10210000DF92EF92FF920F931F93CF93DF937C01A7
:10211000CB018A0120912103222389F0EB016B017D
:10212000C40ED51ECC15DD0569F06991D701ED917E
:10213000FC910190F081E02DC7011995F3CF642F38
:102140000E94F00FC801DF91CF911F910F91FF9076
:10215000EF90DF90CF900895CF93DF931F92CDB78C
:10216000DEB76983209121032223F9F020911E0319
:10217000203258F021E030E0FC013383228390E0EC
:1021800080E00F90DF91CF91089580911F03E82F99
:10219000F0E0E25AFD4F998190838F5F80931F0397
:1021A00080931E0381E090E0ECCF61E0CE010196C8
:1021B0000E94F00FF7CFCF92DF92EF92FF920F9332
:1021C0001F93CF93DF93D0911E0381E0D13208F0AB
:1021D0009CC0C09120030E9443076B017C01809149
:1021E000E80281116CC082E08093E80281E0809374
:1021F000EA028FEF8093E70210920C03D0930B0357
:10220000AEE5B2E0EBEEF2E080E0D8138DC01092C4
:102210000D0380910D03CC0FC82BC0930D0380914B
:10222000E902813009F084C01092E9020E9443075C
:102230006B017C0180910D038093BB0080919F0214
:102240009091A002A091A102B091A202892B8A2BA9
:102250008B2BA1F00E94430700919F021091A002D6
:102260002091A1023091A2026C197D098E099F096B
:10227000061717072807390708F442C08091BC00E9
:1022800083FDD8CF85EC8093BC000E9443076B018F
:102290007C018091E802823009F44CC08091E70211
:1022A0008F3F09F469C08091E702803209F466C06B
:1022B0008091E702803309F463C084E026C08091F6
:1022C0009F029091A002A091A102B091A202892B3D
:1022D0008A2B8B2B09F483CF0E94430700919F0226
:1022E0001091A0022091A1023091A2026C197D09E7
:1022F0008E099F09061717072807390708F06FCFBF
:1023000080919E020E94351085E010921F0310926A
:102310001E0310922103DF91CF911F910F91FF9027
:10232000EF90DF90CF9008959D9191938F5F6DCF47
:1023300085EEA9CF80919F029091A002A091A10269
:10234000B091A202892B8A2B8B2B09F4A2CF0E9479
:10235000430700919F021091A0022091A1023091A9
:10236000A2026C197D098E099F0906171707280715
:10237000390708F08ECFC4CF80E0C7CF82E0C5CF49
:1023800083E0C3CFEF92FF920F931F93CF93DF931E
:102390007C01C62F80914B0390914C03009709F468
:1023A00059C020914F0331E0309321032093200343
:1023B00010921F0310921E03DC01ED91FC9101901D
:1023C000F081E02D60E019958701EE24E394F12C73
:1023D000D1E0C15080914B0390914C03CF3F91F1DC
:1023E000B0E2EB16F104D8F00E94DB1080914B03B1
:1023F00090914C0320914F03D0932103209320030D
:1024000010921F0310921E03DC01ED91FC910190CC
:10241000F081E02D60E01995EE24E394F12C809199
:102420004B0390914C03F8016491DC01ED91FC9118
:102430000190F081E02D1995BFEFEB1AFB0A0F5FB9
:102440001F4FC7CFDF91CF911F910F91FF90EF905A
:102450000C94DB10E0915B03F0915C039081809120
:1024600061038095892380838701C15008F438C0B7
:10247000F80184912091490330914A03232B29F0DC
:102480000E94F1090F5F1F4FF0CF28E030E040E8D5
:10249000E0915703F091580390915F03582F542314
:1024A000D9F05081952B9083E0915903F0915A0314
:1024B000908150916003952B9083E0915903F091A6
:1024C0005A0350819091600390959523908346958F
:1024D00021503109E9F6D6CF508190959523E3CF6D
:1024E000DF91CF911F910F91FF90EF9008951F936F
:1024F000CF93DF93EC018D8D9E8D009721F1162FE8
:1025000029A131E0309321032093200310921F036F
:1025100010921E03DC01ED91FC910190F081E02D01
:1025200060E019958D8D9E8DDC01ED91FC910190FF
:10253000F081E02D612F19958D8D9E8DDF91CF91CA
:102540001F910C94DB10ADA5BEA59C918BA9809525
:1025500089238C938B8D9C8D892B31F0862FDF9175
:10256000CF911F910C94F10928E030E080E8A9A5F3
:10257000BAA599A9462F4823C1F04C91942B9C935E
:10258000ABA5BCA59C914AA9942B9C93ABA5BCA5DB
:102590004C919AA9909594239C938695215031094A
:1025A00031F7DF91CF911F9108954C91909594232D
:1025B000E6CF1F93CF93DF93EC01162F8D8D9E8D69
:1025C000892BB1F12DA93EA94FA958AD60E074E265
:1025D00084EF90E00E94CD19205131094109510941
:1025E00056954795379527952093B80066EA1111BF
:1025F00067EACE010E9477128D8D9E8D892B41F165
:1026000029AD3AAD4BAD5CAD60E074E284EF90E093
:102610000E94CD192051310941095109569547951C
:10262000379527952093B800DF91CF911F9108959A
:102630008B8D9C8D892B21F08EAD9FAD0E94F8096A
:10264000EFA5F8A990818CA9809589238083CECFAE
:10265000EFA5F8A980819CA9892B8083E5CF90E024
:1026600080E008952091340330913503C901079625
:1026700097FD079623E0959587952A95E1F7209198
:10268000320330913303829FA001839F500D929FAC
:10269000500D112470E060E080914D0390914E0345
:1026A0000C94211B0E941C1B85ED8093BC00809123
:1026B0009F029091A002A091A102B091A202079660
:1026C000A11DB11D23E0B695A795979587952A95ED
:1026D000D1F72091BC0024FD03C01092E8020895B8
:1026E00040919F025091A0026091A1027091A202BC
:1026F000452B462B472B69F30097A105B10541F007
:1027000025E32A95F1F700000197A109B109E1CF6E
:1027100080919E020C9435101F920F920FB60F926B
:1027200011242F933F938F939F93AF93BF938091E7
:102730001A0390911B03A0911C03B0911D033091CB
:102740000E0323E0230F2D3758F50196A11DB11D6F
:1027500020930E0380931A0390931B03A0931C03F2
:10276000B0931D0380910F0390911003A09111036A
:10277000B09112030196A11DB11D80930F03909398
:102780001003A0931103B0931203BF91AF919F91D7
:102790008F913F912F910F900FBE0F901F90189522
:1027A00026E8230F0296A11DB11DD2CF1F920F92D2
:1027B0000FB60F9211240BB60F922F933F934F93A6
:1027C0005F936F937F938F939F93AF93BF93EF9399
:1027D000FF938091B900887F803609F44DC008F0DE
:1027E00040C0883209F4A9C028F5803109F49DC0A1
:1027F000C8F4882309F4FBC0883009F496C0FF911F
:10280000EF91BF91AF919F918F917F916F915F9168
:102810004F913F912F910F900BBE0F900FBE0F90D5
:102820001F901895883109F488C0803241F7809351
:10283000E70214C0803409F49DC040F48033B9F33A
:102840008833E9F68093E70285ECB0C0803509F45F
:1028500085C0883509F496C0883489F60E945413DF
:10286000CECF883909F48CC038F5883729F050F478
:10287000883611F0803719F683E08093E8021092D1
:10288000E60257C0883809F47BC0803919F08038D7
:1028900009F0B5CF8091E602803208F071C0E09176
:1028A000E60281E08E0F8093E6028091BB00F0E0AB
:1028B000EA53FD4F80833DC0803B39F0E0F4803A1D
:1028C00009F479C0883A09F09ACF84E08093E8024D
:1028D0001092C5021092C402E0911603F091170302
:1028E00019958091C40281110FC081E08093C402C8
:1028F0001092A40209C0803C09F4A6CF883C09F4D8
:10290000A3CF883B09F07BCFE091C50281E08E0F19
:102910008093C502F0E0EC55FD4F80818093BB00B1
:102920009091C5028091C40229C080910D038093CB
:10293000BB0085EC8093BC0062CF90910C0380912A
:102940000B03981758F5E0910C0381E08E0F8093EC
:102950000C03F0E0E551FD4F8081E9CFE0910C03DD
:1029600081E08E0F80930C038091BB00F0E0E55175
:10297000FD4F808390910C0380910B039817C8F250
:1029800085E8D8CFE0910C0381E08E0F80930C0393
:102990008091BB00F0E0E551FD4F80838091EA0219
:1029A00081115CCF81E08093E90284EA8093BC00CE
:1029B0001092E80224CF85EC8093BC001092E802CC
:1029C0008091E602803230F4E091E602F0E0EA53D2
:1029D000FD4F10826091E60270E0E0911403F091E7
:1029E000150386EC92E019951092E60208CF10923A
:1029F000E70234CFA2E2B3E013961C921E92129724
:102A000048EE53E060E070E014964D935D936D9353
:102A10007C9317978AE092E011969C938E93EEE256
:102A2000F3E01382128220E830E03583248380E4CF
:102A300090E0978386833187208793878287168AE1
:102A4000158614861786168681E0858B848B2FEF7A
:102A50003FEF338B228B318B208B878B108E128E26
:102A6000118E8CE192E091838083148E138EB68F49
:102A7000A58F10A2178E8FEF84A385A386A387A3AB
:102A800084E080A780E89AE1A6E0B0E085AB96AB51
:102A9000A7ABB0AF80EA96E8A1E0B0E081AF92AF1B
:102AA000A3AFB4AF80E586AF17AE0895CF93DF93A1
:102AB000CDB7DEB7A1970FB6F894DEBF0FBECDBF7E
:102AC000789484B5826084BD84B5816084BD85B509
:102AD000826085BD85B5816085BD80916E00816015
:102AE00080936E00109281008091810082608093BB
:102AF00081008091810081608093810080918000BD
:102B00008160809380008091B10084608093B100E7
:102B10008091B00081608093B000809191008260CC
:102B200080939100809191008160809391008091C9
:102B300090008160809390008091A10082608093DA
:102B4000A1008091A10081608093A1008091A000EC
:102B500081608093A0008091210182608093210197
:102B60008091210181608093210180912001816009
:102B70008093200180917A00846080937A00809114
:102B80007A00826080937A0080917A0081608093DD
:102B90007A0080917A00806880937A001092C10058
:102BA000109219031092180310921F0310921E0323
:102BB0000E94171088E896E09093170380931603FD
:102BC00089E896E0909315038093140380914D0358
:102BD00090914E03892B11F10E94321320913403FE
:102BE00030913503809132039091330321323105C6
:102BF0000CF04CC1B9016052710977FF02C06F5FE0
:102C00007F4F759567958357910997FD019600E26F
:102C100010E023E730E040E057E04BC1209134035F
:102C200030913503C901079697FD0796B3E0959556
:102C30008795BA95E1F72091320330913303AC01C7
:102C4000429FC001439F900D529F900D11240E94FE
:102C5000F71990934E0380934D03892B09F0BCCF55
:102C6000FF24F39472E0E72EEAE04E2E512C612C03
:102C7000712C812CF4E29F2EF4EFAF2EB12C0E9428
:102C8000321381E090E0909341038093400390934E
:102C90003F0380933E0310923B0310923A0310923D
:102CA0003D0310923C03F0924203F092430342E151
:102CB00050E064E472E08EE293E00E948A06AAE0AB
:102CC000B0E0B0933B03A0933A03EEE1F0E0F09361
:102CD0003D03E0933C03E0924203E09243032FB7AD
:102CE000F89460911A0370911B0380911C039091DA
:102CF0001D032FBF28EE33E040E050E00E94CD19C5
:102D000019A28E010F5D1F4FCA01B901A3019201E3
:102D10000E94CD19605DD8016E938D01211531059A
:102D20004105510589F7109769F0FD0101900020D8
:102D3000E9F73197AF014A1B5B0BBD018EE293E0CF
:102D40000E948A0646E050E067E572E08EE293E07A
:102D50000E948A0680914B0390914C03892B09F4C1
:102D600082C22091630330916403409165035091C6
:102D70006603C501B4010E94CD19205131094109F2
:102D8000510956954795379527952093B80065E0EA
:102D900080EA9BE00E94C2116091320361508EE292
:102DA00093E00E9477122091340330913503C901DA
:102DB000079697FD079633E0959587953A95E1F745
:102DC0002091320330913303829F1001839F300C96
:102DD000929F300C112400914D0310914E0380916D
:102DE0004B0390914C03200E311E009709F479C2D9
:102DF00020914F03F09221032093200310921F0390
:102E000010921E03DC01ED91FC910190F081E02D08
:102E100060E41995CC24C394D12C80914B039091FC
:102E20004C032016310609F435C2B0E2CB16D104AA
:102E3000D8F00E94DB1080914B0390914C032091BD
:102E40004F03F09221032093200310921F0310924E
:102E50001E03DC01ED91FC910190F081E02D60E416
:102E60001995CC24C394D12C80914B0390914C03A1
:102E7000F80161918F01DC01ED91FC910190F081ED
:102E8000E02D1995BFEFCB1ADB0AC7CFB90160540B
:102E9000710977FF02C06F5F7F4F75956795825507
:102EA000910997FD019600E410E022E530E040EE44
:102EB00058E0959587950E94E20E82E0809350033A
:102EC00080914B0390914C03892B09F4DEC08CE375
:102ED00080934F03109219031092180310921F034E
:102EE00010921E030E94171088E896E09093170333
:102EF0008093160389E896E090931503809314035A
:102F00008091560387FD1DC00E94680661E0809194
:102F100056030E94B70661E070E080E090E00E94F6
:102F2000680760E0809156030E94B7066AE070E08F
:102F300080E090E00E94680761E0809156030E9463
:102F4000B70680914B0390914C03892B09F454C12F
:102F500020916303309164034091650350916603AF
:102F600060E074E284EF90E00E94CD1920513109B5
:102F70004109510956954795379527952093B800F3
:102F800064E08CEF96E00E94C211609134036150BE
:102F90008EE293E00E94771264E088EF96E00E9450
:102FA000C2118091500360E1813009F064E18EE24A
:102FB00093E00E94771264E084EF96E00E94C211D1
:102FC0008FE880936B0380913203909133038038B4
:102FD000910509F02AC18091340390913503803422
:102FE000910509F032C180915003813009F01BC175
:102FF0008FE980936B0312E16AED8EE293E00E9409
:103000007712612F8EE293E00E94771261E88EE2E0
:1030100093E00E94771260916B038EE293E00E942E
:10302000771269ED8EE293E00E947712809150034F
:1030300062E2813009F061EF8EE293E00E94771244
:1030400066E08EEE96E00E94C21180914B03909153
:103050004C03892B09F4FDC020916703309168036C
:103060004091690350916A0360E074E284EF90E05C
:103070000E94CD19205131094109510956954795B2
:10308000379527952093B800EBCD809154030E948B
:103090006806809155030E94680680915403082EAB
:1030A000000C990BFC01E752F44FE491F0E0EE0FB5
:1030B000FF1FEB55F44F2591349130935C0320931F
:1030C0005B03FC01E15EF34FE491E09361038091C7
:1030D0005503082E000C990BFC01E752F44FE491C4
:1030E000F0E0EE0FFF1FEB55F44FA591B491B093B4
:1030F0005E03A0935D03FC01E15EF34FE491E09376
:1031000062038C91E82BEC938091490390914A03E0
:10311000892B89F11FB7F89480911303811124C082
:10312000EEE0FCE08491E4E5FCE09491E82FF0E02F
:10313000EE0FFF1FE154F44FA591B491EC91E923F8
:1031400021F461E085E30E94B70685E30E946806EA
:103150008CB580618CBD8CB580648CBD84E30E948D
:10316000680683E30E946806809113038F5F809353
:1031700013031FBFC5CE809152030E946806809141
:1031800053030E94680680915203082E000C990B8D
:10319000FC01E752F44FE491F0E0EE0FFF1FEB5516
:1031A000F44F259134913093580320935703FC0139
:1031B000E15EF34FE491E0935F0380915303082EA7
:1031C000000C990BFC01E752F44FE491F0E0EE0F94
:1031D000FF1FEB55F44FA591B491B0935A03A09300
:1031E0005903FC01E15EF34FE491E09360038C919D
:1031F000E095E823EC9384CE8091490390914A03B3
:10320000892B31F080916C0390916D030E94F80935
:10321000E0915D03F0915E0390818091620380955F
:1032200089238083ADCE8FECE4CE8036910569F49E
:103230008091340390913503409739F48091500385
:10324000813029F480E180936B0312E0D5CE8FEAC0
:10325000FACFE0915D03F0915E038081909162036B
:10326000892B8083FDCC8091490390914A03892B5F
:1032700031F080916C0390916D030E94F809E09108
:103280005D03F0915E0390818091620380958923B4
:1032900080837DCD0E94DB1080914B0390914C0385
:1032A000892B09F461C02091670330916803409134
:1032B000690350916A03C501B4010E94CD192051E0
:1032C000310941095109569547953795279520931E
:1032D000B80040E050E0452B09F4D1CC0E9400003A
:1032E000CECCE0915B03F0915C038081909161030F
:1032F000892B80832016310679F2F80181918F01A4
:103300002091490330914A03232B19F00E94F109BF
:10331000F1CF28E030E040E8E0915703F091580306
:1033200090915F03582F5423D9F05081952B9083AF
:10333000E0915903F0915A03908150916003952BCD
:103340009083E0915903F0915A035081909160036A
:10335000909595239083469521503109E9F6CACF7F
:10336000508190959523E3CFE0915D03F0915E034A
:10337000808190916203892B8083ABCF8CE192E0B6
:1033800090932F0380932E0380914D0390914E03D1
:10339000009711F00C94931A0895A1E21A2EAA1B1B
:1033A000BB1BFD010DC0AA1FBB1FEE1FFF1FA217F5
:1033B000B307E407F50720F0A21BB30BE40BF50BF2
:1033C000661F771F881F991F1A9469F7609570957B
:1033D000809590959B01AC01BD01CF010895EE0F42
:1033E000FF1F881F8BBF0790F691E02D19940F9354
:1033F0001F93CF93DF938230910510F482E090E029
:10340000E0917003F091710330E020E0B0E0A0E0C3
:10341000309799F42115310509F44AC0281B390B5E
:1034200024303105D8F58A819B816115710589F1B8
:10343000FB0193838283FE0111C04081518102818F
:10344000138148175907E0F04817590799F4109766
:1034500061F012960C93129713961C933296CF013B
:10346000DF91CF911F910F910895009370031093F6
:103470007103F4CF2115310551F04217530738F08D
:10348000A901DB019A01BD01DF01F801C1CFEF0104
:10349000F9CF9093710380937003CDCFFE01E20FBB
:1034A000F31F819391932250310939832883D7CF19
:1034B00020916E0330916F03232B41F4209102027F
:1034C0003091030230936F0320936E03209100022A
:1034D000309101022115310541F42DB73EB74091DD
:1034E000040250910502241B350BE0916E03F0910C
:1034F0006F03E217F307A0F42E1B3F0B28173907C1
:1035000078F0AC014E5F5F4F2417350748F04E0F3F
:103510005F1F50936F0340936E03819391939FCFEE
:10352000F0E0E0E09CCFCF93DF930097E9F0FC015F
:10353000329713821282A0917003B0917103ED0152
:1035400030E020E01097A1F420813181820F931F99
:1035500020916E0330916F032817390709F061C07D
:10356000F0936F03E0936E03DF91CF910895EA012A
:10357000CE17DF07E8F54A815B819E0141155105B1
:10358000B1F7E901FB83EA8349915991C40FD51F33
:10359000EC17FD0761F4808191810296840F951FDD
:1035A000E90199838883828193819B838A83F0E0F8
:1035B000E0E012968D919C9113970097B9F52D91AB
:1035C0003C911197CD010296820F931F20916E03BB
:1035D00030916F032817390739F6309751F510925B
:1035E000710310927003B0936F03A0936E03BCCF6E
:1035F000D383C28340815181840F951FC817D90797
:1036000061F44E5F5F4F88819981480F591F518344
:1036100040838A819B81938382832115310509F040
:10362000B0CFF0937103E09370039ECFFD01DC01F6
:10363000C0CF13821282D7CF81E090E0F8940C942F
:10364000281BDC0101C06D9341505040E0F7089504
:1036500016E0C4E3D6E000E006C0802FFE010E9421
:10366000EF192196011DC533D10780E00807A9F79E
:04367000F894FFCFFC
:1036740000007203800000000000AC107F102F13C4
:10368400870678106510561000000000360C8A0674
:103694002F13EF0F41098706DB0EB30ECF0EC30EB7
:1036A400430F8706FC09D912B108FA08FC0DDF0D97
:1036B400670D080D486F6C612C2068616E20706185
:0E36C4007361646F3A2000207365672E20004A
:00000001FF
